{
  "_format": "hh-sol-artifact-1",
  "contractName": "RealEstate",
  "sourceName": "contracts/RealEstate.sol",
  "abi": [
    {
      "inputs": [],
      "stateMutability": "nonpayable",
      "type": "constructor"
    },
    {
      "inputs": [
        {
          "internalType": "address",
          "name": "sender",
          "type": "address"
        },
        {
          "internalType": "uint256",
          "name": "tokenId",
          "type": "uint256"
        },
        {
          "internalType": "address",
          "name": "owner",
          "type": "address"
        }
      ],
      "name": "ERC721IncorrectOwner",
      "type": "error"
    },
    {
      "inputs": [
        {
          "internalType": "address",
          "name": "operator",
          "type": "address"
        },
        {
          "internalType": "uint256",
          "name": "tokenId",
          "type": "uint256"
        }
      ],
      "name": "ERC721InsufficientApproval",
      "type": "error"
    },
    {
      "inputs": [
        {
          "internalType": "address",
          "name": "approver",
          "type": "address"
        }
      ],
      "name": "ERC721InvalidApprover",
      "type": "error"
    },
    {
      "inputs": [
        {
          "internalType": "address",
          "name": "operator",
          "type": "address"
        }
      ],
      "name": "ERC721InvalidOperator",
      "type": "error"
    },
    {
      "inputs": [
        {
          "internalType": "address",
          "name": "owner",
          "type": "address"
        }
      ],
      "name": "ERC721InvalidOwner",
      "type": "error"
    },
    {
      "inputs": [
        {
          "internalType": "address",
          "name": "receiver",
          "type": "address"
        }
      ],
      "name": "ERC721InvalidReceiver",
      "type": "error"
    },
    {
      "inputs": [
        {
          "internalType": "address",
          "name": "sender",
          "type": "address"
        }
      ],
      "name": "ERC721InvalidSender",
      "type": "error"
    },
    {
      "inputs": [
        {
          "internalType": "uint256",
          "name": "tokenId",
          "type": "uint256"
        }
      ],
      "name": "ERC721NonexistentToken",
      "type": "error"
    },
    {
      "anonymous": false,
      "inputs": [
        {
          "indexed": true,
          "internalType": "address",
          "name": "owner",
          "type": "address"
        },
        {
          "indexed": true,
          "internalType": "address",
          "name": "approved",
          "type": "address"
        },
        {
          "indexed": true,
          "internalType": "uint256",
          "name": "tokenId",
          "type": "uint256"
        }
      ],
      "name": "Approval",
      "type": "event"
    },
    {
      "anonymous": false,
      "inputs": [
        {
          "indexed": true,
          "internalType": "address",
          "name": "owner",
          "type": "address"
        },
        {
          "indexed": true,
          "internalType": "address",
          "name": "operator",
          "type": "address"
        },
        {
          "indexed": false,
          "internalType": "bool",
          "name": "approved",
          "type": "bool"
        }
      ],
      "name": "ApprovalForAll",
      "type": "event"
    },
    {
      "anonymous": false,
      "inputs": [
        {
          "indexed": false,
          "internalType": "uint256",
          "name": "_fromTokenId",
          "type": "uint256"
        },
        {
          "indexed": false,
          "internalType": "uint256",
          "name": "_toTokenId",
          "type": "uint256"
        }
      ],
      "name": "BatchMetadataUpdate",
      "type": "event"
    },
    {
      "anonymous": false,
      "inputs": [
        {
          "indexed": false,
          "internalType": "uint256",
          "name": "_tokenId",
          "type": "uint256"
        }
      ],
      "name": "MetadataUpdate",
      "type": "event"
    },
    {
      "anonymous": false,
      "inputs": [
        {
          "indexed": true,
          "internalType": "address",
          "name": "from",
          "type": "address"
        },
        {
          "indexed": true,
          "internalType": "address",
          "name": "to",
          "type": "address"
        },
        {
          "indexed": true,
          "internalType": "uint256",
          "name": "tokenId",
          "type": "uint256"
        }
      ],
      "name": "Transfer",
      "type": "event"
    },
    {
      "inputs": [
        {
          "internalType": "address",
          "name": "to",
          "type": "address"
        },
        {
          "internalType": "uint256",
          "name": "tokenId",
          "type": "uint256"
        }
      ],
      "name": "approve",
      "outputs": [],
      "stateMutability": "nonpayable",
      "type": "function"
    },
    {
      "inputs": [
        {
          "internalType": "address",
          "name": "owner",
          "type": "address"
        }
      ],
      "name": "balanceOf",
      "outputs": [
        {
          "internalType": "uint256",
          "name": "",
          "type": "uint256"
        }
      ],
      "stateMutability": "view",
      "type": "function"
    },
    {
      "inputs": [
        {
          "internalType": "uint256",
          "name": "tokenId",
          "type": "uint256"
        }
      ],
      "name": "getApproved",
      "outputs": [
        {
          "internalType": "address",
          "name": "",
          "type": "address"
        }
      ],
      "stateMutability": "view",
      "type": "function"
    },
    {
      "inputs": [
        {
          "internalType": "address",
          "name": "owner",
          "type": "address"
        },
        {
          "internalType": "address",
          "name": "operator",
          "type": "address"
        }
      ],
      "name": "isApprovedForAll",
      "outputs": [
        {
          "internalType": "bool",
          "name": "",
          "type": "bool"
        }
      ],
      "stateMutability": "view",
      "type": "function"
    },
    {
      "inputs": [],
      "name": "name",
      "outputs": [
        {
          "internalType": "string",
          "name": "",
          "type": "string"
        }
      ],
      "stateMutability": "view",
      "type": "function"
    },
    {
      "inputs": [],
      "name": "owner",
      "outputs": [
        {
          "internalType": "address",
          "name": "",
          "type": "address"
        }
      ],
      "stateMutability": "view",
      "type": "function"
    },
    {
      "inputs": [
        {
          "internalType": "uint256",
          "name": "tokenId",
          "type": "uint256"
        }
      ],
      "name": "ownerOf",
      "outputs": [
        {
          "internalType": "address",
          "name": "",
          "type": "address"
        }
      ],
      "stateMutability": "view",
      "type": "function"
    },
    {
      "inputs": [
        {
          "internalType": "address",
          "name": "to",
          "type": "address"
        },
        {
          "internalType": "uint256",
          "name": "tokenId",
          "type": "uint256"
        },
        {
          "internalType": "string",
          "name": "uri",
          "type": "string"
        }
      ],
      "name": "safeMint",
      "outputs": [],
      "stateMutability": "nonpayable",
      "type": "function"
    },
    {
      "inputs": [
        {
          "internalType": "address",
          "name": "from",
          "type": "address"
        },
        {
          "internalType": "address",
          "name": "to",
          "type": "address"
        },
        {
          "internalType": "uint256",
          "name": "tokenId",
          "type": "uint256"
        }
      ],
      "name": "safeTransferFrom",
      "outputs": [],
      "stateMutability": "nonpayable",
      "type": "function"
    },
    {
      "inputs": [
        {
          "internalType": "address",
          "name": "from",
          "type": "address"
        },
        {
          "internalType": "address",
          "name": "to",
          "type": "address"
        },
        {
          "internalType": "uint256",
          "name": "tokenId",
          "type": "uint256"
        },
        {
          "internalType": "bytes",
          "name": "data",
          "type": "bytes"
        }
      ],
      "name": "safeTransferFrom",
      "outputs": [],
      "stateMutability": "nonpayable",
      "type": "function"
    },
    {
      "inputs": [
        {
          "internalType": "address",
          "name": "operator",
          "type": "address"
        },
        {
          "internalType": "bool",
          "name": "approved",
          "type": "bool"
        }
      ],
      "name": "setApprovalForAll",
      "outputs": [],
      "stateMutability": "nonpayable",
      "type": "function"
    },
    {
      "inputs": [
        {
          "internalType": "bytes4",
          "name": "interfaceId",
          "type": "bytes4"
        }
      ],
      "name": "supportsInterface",
      "outputs": [
        {
          "internalType": "bool",
          "name": "",
          "type": "bool"
        }
      ],
      "stateMutability": "view",
      "type": "function"
    },
    {
      "inputs": [],
      "name": "symbol",
      "outputs": [
        {
          "internalType": "string",
          "name": "",
          "type": "string"
        }
      ],
      "stateMutability": "view",
      "type": "function"
    },
    {
      "inputs": [
        {
          "internalType": "uint256",
          "name": "tokenId",
          "type": "uint256"
        }
      ],
      "name": "tokenURI",
      "outputs": [
        {
          "internalType": "string",
          "name": "",
          "type": "string"
        }
      ],
      "stateMutability": "view",
      "type": "function"
    },
    {
      "inputs": [
        {
          "internalType": "address",
          "name": "from",
          "type": "address"
        },
        {
          "internalType": "address",
          "name": "to",
          "type": "address"
        },
        {
          "internalType": "uint256",
          "name": "tokenId",
          "type": "uint256"
        }
      ],
      "name": "transferFrom",
      "outputs": [],
      "stateMutability": "nonpayable",
      "type": "function"
    }
  ],
  "bytecode": "0x60806040523480156200001157600080fd5b506040518060400160405280600b81526020017f5265616c204573746174650000000000000000000000000000000000000000008152506040518060400160405280600481526020017f5265616c0000000000000000000000000000000000000000000000000000000081525081600090816200008f919062000365565b508060019081620000a1919062000365565b50505033600760006101000a81548173ffffffffffffffffffffffffffffffffffffffff021916908373ffffffffffffffffffffffffffffffffffffffff1602179055506200044c565b600081519050919050565b7f4e487b7100000000000000000000000000000000000000000000000000000000600052604160045260246000fd5b7f4e487b7100000000000000000000000000000000000000000000000000000000600052602260045260246000fd5b600060028204905060018216806200016d57607f821691505b60208210810362000183576200018262000125565b5b50919050565b60008190508160005260206000209050919050565b60006020601f8301049050919050565b600082821b905092915050565b600060088302620001ed7fffffffffffffffffffffffffffffffffffffffffffffffffffffffffffffffff82620001ae565b620001f98683620001ae565b95508019841693508086168417925050509392505050565b6000819050919050565b6000819050919050565b600062000246620002406200023a8462000211565b6200021b565b62000211565b9050919050565b6000819050919050565b620002628362000225565b6200027a62000271826200024d565b848454620001bb565b825550505050565b600090565b6200029162000282565b6200029e81848462000257565b505050565b5b81811015620002c657620002ba60008262000287565b600181019050620002a4565b5050565b601f8211156200031557620002df8162000189565b620002ea846200019e565b81016020851015620002fa578190505b6200031262000309856200019e565b830182620002a3565b50505b505050565b600082821c905092915050565b60006200033a600019846008026200031a565b1980831691505092915050565b600062000355838362000327565b9150826002028217905092915050565b6200037082620000eb565b67ffffffffffffffff8111156200038c576200038b620000f6565b5b62000398825462000154565b620003a5828285620002ca565b600060209050601f831160018114620003dd5760008415620003c8578287015190505b620003d4858262000347565b86555062000444565b601f198416620003ed8662000189565b60005b828110156200041757848901518255600182019150602085019450602081019050620003f0565b8683101562000437578489015162000433601f89168262000327565b8355505b6001600288020188555050505b505050505050565b6123d0806200045c6000396000f3fe608060405234801561001057600080fd5b50600436106100f55760003560e01c806370a0823111610097578063b88d4fde11610066578063b88d4fde14610284578063c87b56dd146102a0578063cd279c7c146102d0578063e985e9c5146102ec576100f5565b806370a08231146101fc5780638da5cb5b1461022c57806395d89b411461024a578063a22cb46514610268576100f5565b8063095ea7b3116100d3578063095ea7b31461017857806323b872dd1461019457806342842e0e146101b05780636352211e146101cc576100f5565b806301ffc9a7146100fa57806306fdde031461012a578063081812fc14610148575b600080fd5b610114600480360381019061010f919061188c565b61031c565b60405161012191906118d4565b60405180910390f35b61013261032e565b60405161013f919061197f565b60405180910390f35b610162600480360381019061015d91906119d7565b6103c0565b60405161016f9190611a45565b60405180910390f35b610192600480360381019061018d9190611a8c565b6103dc565b005b6101ae60048036038101906101a99190611acc565b6103f2565b005b6101ca60048036038101906101c59190611acc565b6104f4565b005b6101e660048036038101906101e191906119d7565b610514565b6040516101f39190611a45565b60405180910390f35b61021660048036038101906102119190611b1f565b610526565b6040516102239190611b5b565b60405180910390f35b6102346105e0565b6040516102419190611a45565b60405180910390f35b610252610606565b60405161025f919061197f565b60405180910390f35b610282600480360381019061027d9190611ba2565b610698565b005b61029e60048036038101906102999190611d17565b6106ae565b005b6102ba60048036038101906102b591906119d7565b6106cb565b6040516102c7919061197f565b60405180910390f35b6102ea60048036038101906102e59190611e3b565b6106dd565b005b61030660048036038101906103019190611eaa565b6106f6565b60405161031391906118d4565b60405180910390f35b60006103278261078a565b9050919050565b60606000805461033d90611f19565b80601f016020809104026020016040519081016040528092919081815260200182805461036990611f19565b80156103b65780601f1061038b576101008083540402835291602001916103b6565b820191906000526020600020905b81548152906001019060200180831161039957829003601f168201915b5050505050905090565b60006103cb826107eb565b506103d582610873565b9050919050565b6103ee82826103e96108b0565b6108b8565b5050565b600073ffffffffffffffffffffffffffffffffffffffff168273ffffffffffffffffffffffffffffffffffffffff16036104645760006040517f64a0ae9200000000000000000000000000000000000000000000000000000000815260040161045b9190611a45565b60405180910390fd5b600061047883836104736108b0565b6108ca565b90508373ffffffffffffffffffffffffffffffffffffffff168173ffffffffffffffffffffffffffffffffffffffff16146104ee578382826040517f64283d7b0000000000000000000000000000000000000000000000000000000081526004016104e593929190611f4a565b60405180910390fd5b50505050565b61050f838383604051806020016040528060008152506106ae565b505050565b600061051f826107eb565b9050919050565b60008073ffffffffffffffffffffffffffffffffffffffff168273ffffffffffffffffffffffffffffffffffffffff16036105995760006040517f89c62b640000000000000000000000000000000000000000000000000000000081526004016105909190611a45565b60405180910390fd5b600360008373ffffffffffffffffffffffffffffffffffffffff1673ffffffffffffffffffffffffffffffffffffffff168152602001908152602001600020549050919050565b600760009054906101000a900473ffffffffffffffffffffffffffffffffffffffff1681565b60606001805461061590611f19565b80601f016020809104026020016040519081016040528092919081815260200182805461064190611f19565b801561068e5780601f106106635761010080835404028352916020019161068e565b820191906000526020600020905b81548152906001019060200180831161067157829003601f168201915b5050505050905090565b6106aa6106a36108b0565b8383610ae4565b5050565b6106b98484846103f2565b6106c584848484610c53565b50505050565b60606106d682610e0a565b9050919050565b6106e78383610f1d565b6106f18282610f3b565b505050565b6000600560008473ffffffffffffffffffffffffffffffffffffffff1673ffffffffffffffffffffffffffffffffffffffff16815260200190815260200160002060008373ffffffffffffffffffffffffffffffffffffffff1673ffffffffffffffffffffffffffffffffffffffff16815260200190815260200160002060009054906101000a900460ff16905092915050565b6000634906490660e01b7bffffffffffffffffffffffffffffffffffffffffffffffffffffffff1916827bffffffffffffffffffffffffffffffffffffffffffffffffffffffff191614806107e457506107e382610f97565b5b9050919050565b6000806107f783611079565b9050600073ffffffffffffffffffffffffffffffffffffffff168173ffffffffffffffffffffffffffffffffffffffff160361086a57826040517f7e2732890000000000000000000000000000000000000000000000000000000081526004016108619190611b5b565b60405180910390fd5b80915050919050565b60006004600083815260200190815260200160002060009054906101000a900473ffffffffffffffffffffffffffffffffffffffff169050919050565b600033905090565b6108c583838360016110b6565b505050565b6000806108d684611079565b9050600073ffffffffffffffffffffffffffffffffffffffff168373ffffffffffffffffffffffffffffffffffffffff16146109185761091781848661127b565b5b600073ffffffffffffffffffffffffffffffffffffffff168173ffffffffffffffffffffffffffffffffffffffff16146109a95761095a6000856000806110b6565b6001600360008373ffffffffffffffffffffffffffffffffffffffff1673ffffffffffffffffffffffffffffffffffffffff168152602001908152602001600020600082825403925050819055505b600073ffffffffffffffffffffffffffffffffffffffff168573ffffffffffffffffffffffffffffffffffffffff1614610a2c576001600360008773ffffffffffffffffffffffffffffffffffffffff1673ffffffffffffffffffffffffffffffffffffffff168152602001908152602001600020600082825401925050819055505b846002600086815260200190815260200160002060006101000a81548173ffffffffffffffffffffffffffffffffffffffff021916908373ffffffffffffffffffffffffffffffffffffffff160217905550838573ffffffffffffffffffffffffffffffffffffffff168273ffffffffffffffffffffffffffffffffffffffff167fddf252ad1be2c89b69c2b068fc378daa952ba7f163c4a11628f55a4df523b3ef60405160405180910390a4809150509392505050565b600073ffffffffffffffffffffffffffffffffffffffff168273ffffffffffffffffffffffffffffffffffffffff1603610b5557816040517f5b08ba18000000000000000000000000000000000000000000000000000000008152600401610b4c9190611a45565b60405180910390fd5b80600560008573ffffffffffffffffffffffffffffffffffffffff1673ffffffffffffffffffffffffffffffffffffffff16815260200190815260200160002060008473ffffffffffffffffffffffffffffffffffffffff1673ffffffffffffffffffffffffffffffffffffffff16815260200190815260200160002060006101000a81548160ff0219169083151502179055508173ffffffffffffffffffffffffffffffffffffffff168373ffffffffffffffffffffffffffffffffffffffff167f17307eab39ab6107e8899845ad3d59bd9653f200f220920489ca2b5937696c3183604051610c4691906118d4565b60405180910390a3505050565b60008373ffffffffffffffffffffffffffffffffffffffff163b1115610e04578273ffffffffffffffffffffffffffffffffffffffff1663150b7a02610c976108b0565b8685856040518563ffffffff1660e01b8152600401610cb99493929190611fd6565b6020604051808303816000875af1925050508015610cf557506040513d601f19601f82011682018060405250810190610cf29190612037565b60015b610d79573d8060008114610d25576040519150601f19603f3d011682016040523d82523d6000602084013e610d2a565b606091505b506000815103610d7157836040517f64a0ae92000000000000000000000000000000000000000000000000000000008152600401610d689190611a45565b60405180910390fd5b805181602001fd5b63150b7a0260e01b7bffffffffffffffffffffffffffffffffffffffffffffffffffffffff1916817bffffffffffffffffffffffffffffffffffffffffffffffffffffffff191614610e0257836040517f64a0ae92000000000000000000000000000000000000000000000000000000008152600401610df99190611a45565b60405180910390fd5b505b50505050565b6060610e15826107eb565b506000600660008481526020019081526020016000208054610e3690611f19565b80601f0160208091040260200160405190810160405280929190818152602001828054610e6290611f19565b8015610eaf5780601f10610e8457610100808354040283529160200191610eaf565b820191906000526020600020905b815481529060010190602001808311610e9257829003601f168201915b505050505090506000610ec061133f565b90506000815103610ed5578192505050610f18565b600082511115610f0a578082604051602001610ef29291906120a0565b60405160208183030381529060405292505050610f18565b610f1384611356565b925050505b919050565b610f378282604051806020016040528060008152506113bf565b5050565b80600660008481526020019081526020016000209081610f5b9190612270565b507ff8e1a15aba9398e019f0b49df1a4fde98ee17ae345cb5f6b5e2c27f5033e8ce782604051610f8b9190611b5b565b60405180910390a15050565b60007f80ac58cd000000000000000000000000000000000000000000000000000000007bffffffffffffffffffffffffffffffffffffffffffffffffffffffff1916827bffffffffffffffffffffffffffffffffffffffffffffffffffffffff1916148061106257507f5b5e139f000000000000000000000000000000000000000000000000000000007bffffffffffffffffffffffffffffffffffffffffffffffffffffffff1916827bffffffffffffffffffffffffffffffffffffffffffffffffffffffff1916145b806110725750611071826113db565b5b9050919050565b60006002600083815260200190815260200160002060009054906101000a900473ffffffffffffffffffffffffffffffffffffffff169050919050565b80806110ef5750600073ffffffffffffffffffffffffffffffffffffffff168273ffffffffffffffffffffffffffffffffffffffff1614155b156112235760006110ff846107eb565b9050600073ffffffffffffffffffffffffffffffffffffffff168373ffffffffffffffffffffffffffffffffffffffff161415801561116a57508273ffffffffffffffffffffffffffffffffffffffff168173ffffffffffffffffffffffffffffffffffffffff1614155b801561117d575061117b81846106f6565b155b156111bf57826040517fa9fbf51f0000000000000000000000000000000000000000000000000000000081526004016111b69190611a45565b60405180910390fd5b811561122157838573ffffffffffffffffffffffffffffffffffffffff168273ffffffffffffffffffffffffffffffffffffffff167f8c5be1e5ebec7d5bd14f71427d1e84f3dd0314c0f7b2291e5b200ac8c7c3b92560405160405180910390a45b505b836004600085815260200190815260200160002060006101000a81548173ffffffffffffffffffffffffffffffffffffffff021916908373ffffffffffffffffffffffffffffffffffffffff16021790555050505050565b611286838383611445565b61133a57600073ffffffffffffffffffffffffffffffffffffffff168373ffffffffffffffffffffffffffffffffffffffff16036112fb57806040517f7e2732890000000000000000000000000000000000000000000000000000000081526004016112f29190611b5b565b60405180910390fd5b81816040517f177e802f000000000000000000000000000000000000000000000000000000008152600401611331929190612342565b60405180910390fd5b505050565b606060405180602001604052806000815250905090565b6060611361826107eb565b50600061136c61133f565b9050600081511161138c57604051806020016040528060008152506113b7565b8061139684611506565b6040516020016113a79291906120a0565b6040516020818303038152906040525b915050919050565b6113c983836115d4565b6113d66000848484610c53565b505050565b60007f01ffc9a7000000000000000000000000000000000000000000000000000000007bffffffffffffffffffffffffffffffffffffffffffffffffffffffff1916827bffffffffffffffffffffffffffffffffffffffffffffffffffffffff1916149050919050565b60008073ffffffffffffffffffffffffffffffffffffffff168373ffffffffffffffffffffffffffffffffffffffff16141580156114fd57508273ffffffffffffffffffffffffffffffffffffffff168473ffffffffffffffffffffffffffffffffffffffff1614806114be57506114bd84846106f6565b5b806114fc57508273ffffffffffffffffffffffffffffffffffffffff166114e483610873565b73ffffffffffffffffffffffffffffffffffffffff16145b5b90509392505050565b606060006001611515846116cd565b01905060008167ffffffffffffffff81111561153457611533611bec565b5b6040519080825280601f01601f1916602001820160405280156115665781602001600182028036833780820191505090505b509050600082602001820190505b6001156115c9578080600190039150507f3031323334353637383961626364656600000000000000000000000000000000600a86061a8153600a85816115bd576115bc61236b565b5b04945060008503611574575b819350505050919050565b600073ffffffffffffffffffffffffffffffffffffffff168273ffffffffffffffffffffffffffffffffffffffff16036116465760006040517f64a0ae9200000000000000000000000000000000000000000000000000000000815260040161163d9190611a45565b60405180910390fd5b6000611654838360006108ca565b9050600073ffffffffffffffffffffffffffffffffffffffff168173ffffffffffffffffffffffffffffffffffffffff16146116c85760006040517f73c6ac6e0000000000000000000000000000000000000000000000000000000081526004016116bf9190611a45565b60405180910390fd5b505050565b600080600090507a184f03e93ff9f4daa797ed6e38ed64bf6a1f010000000000000000831061172b577a184f03e93ff9f4daa797ed6e38ed64bf6a1f01000000000000000083816117215761172061236b565b5b0492506040810190505b6d04ee2d6d415b85acef81000000008310611768576d04ee2d6d415b85acef8100000000838161175e5761175d61236b565b5b0492506020810190505b662386f26fc10000831061179757662386f26fc10000838161178d5761178c61236b565b5b0492506010810190505b6305f5e10083106117c0576305f5e10083816117b6576117b561236b565b5b0492506008810190505b61271083106117e55761271083816117db576117da61236b565b5b0492506004810190505b6064831061180857606483816117fe576117fd61236b565b5b0492506002810190505b600a8310611817576001810190505b80915050919050565b6000604051905090565b600080fd5b600080fd5b60007fffffffff0000000000000000000000000000000000000000000000000000000082169050919050565b61186981611834565b811461187457600080fd5b50565b60008135905061188681611860565b92915050565b6000602082840312156118a2576118a161182a565b5b60006118b084828501611877565b91505092915050565b60008115159050919050565b6118ce816118b9565b82525050565b60006020820190506118e960008301846118c5565b92915050565b600081519050919050565b600082825260208201905092915050565b60005b8381101561192957808201518184015260208101905061190e565b60008484015250505050565b6000601f19601f8301169050919050565b6000611951826118ef565b61195b81856118fa565b935061196b81856020860161190b565b61197481611935565b840191505092915050565b600060208201905081810360008301526119998184611946565b905092915050565b6000819050919050565b6119b4816119a1565b81146119bf57600080fd5b50565b6000813590506119d1816119ab565b92915050565b6000602082840312156119ed576119ec61182a565b5b60006119fb848285016119c2565b91505092915050565b600073ffffffffffffffffffffffffffffffffffffffff82169050919050565b6000611a2f82611a04565b9050919050565b611a3f81611a24565b82525050565b6000602082019050611a5a6000830184611a36565b92915050565b611a6981611a24565b8114611a7457600080fd5b50565b600081359050611a8681611a60565b92915050565b60008060408385031215611aa357611aa261182a565b5b6000611ab185828601611a77565b9250506020611ac2858286016119c2565b9150509250929050565b600080600060608486031215611ae557611ae461182a565b5b6000611af386828701611a77565b9350506020611b0486828701611a77565b9250506040611b15868287016119c2565b9150509250925092565b600060208284031215611b3557611b3461182a565b5b6000611b4384828501611a77565b91505092915050565b611b55816119a1565b82525050565b6000602082019050611b706000830184611b4c565b92915050565b611b7f816118b9565b8114611b8a57600080fd5b50565b600081359050611b9c81611b76565b92915050565b60008060408385031215611bb957611bb861182a565b5b6000611bc785828601611a77565b9250506020611bd885828601611b8d565b9150509250929050565b600080fd5b600080fd5b7f4e487b7100000000000000000000000000000000000000000000000000000000600052604160045260246000fd5b611c2482611935565b810181811067ffffffffffffffff82111715611c4357611c42611bec565b5b80604052505050565b6000611c56611820565b9050611c628282611c1b565b919050565b600067ffffffffffffffff821115611c8257611c81611bec565b5b611c8b82611935565b9050602081019050919050565b82818337600083830152505050565b6000611cba611cb584611c67565b611c4c565b905082815260208101848484011115611cd657611cd5611be7565b5b611ce1848285611c98565b509392505050565b600082601f830112611cfe57611cfd611be2565b5b8135611d0e848260208601611ca7565b91505092915050565b60008060008060808587031215611d3157611d3061182a565b5b6000611d3f87828801611a77565b9450506020611d5087828801611a77565b9350506040611d61878288016119c2565b925050606085013567ffffffffffffffff811115611d8257611d8161182f565b5b611d8e87828801611ce9565b91505092959194509250565b600067ffffffffffffffff821115611db557611db4611bec565b5b611dbe82611935565b9050602081019050919050565b6000611dde611dd984611d9a565b611c4c565b905082815260208101848484011115611dfa57611df9611be7565b5b611e05848285611c98565b509392505050565b600082601f830112611e2257611e21611be2565b5b8135611e32848260208601611dcb565b91505092915050565b600080600060608486031215611e5457611e5361182a565b5b6000611e6286828701611a77565b9350506020611e73868287016119c2565b925050604084013567ffffffffffffffff811115611e9457611e9361182f565b5b611ea086828701611e0d565b9150509250925092565b60008060408385031215611ec157611ec061182a565b5b6000611ecf85828601611a77565b9250506020611ee085828601611a77565b9150509250929050565b7f4e487b7100000000000000000000000000000000000000000000000000000000600052602260045260246000fd5b60006002820490506001821680611f3157607f821691505b602082108103611f4457611f43611eea565b5b50919050565b6000606082019050611f5f6000830186611a36565b611f6c6020830185611b4c565b611f796040830184611a36565b949350505050565b600081519050919050565b600082825260208201905092915050565b6000611fa882611f81565b611fb28185611f8c565b9350611fc281856020860161190b565b611fcb81611935565b840191505092915050565b6000608082019050611feb6000830187611a36565b611ff86020830186611a36565b6120056040830185611b4c565b81810360608301526120178184611f9d565b905095945050505050565b60008151905061203181611860565b92915050565b60006020828403121561204d5761204c61182a565b5b600061205b84828501612022565b91505092915050565b600081905092915050565b600061207a826118ef565b6120848185612064565b935061209481856020860161190b565b80840191505092915050565b60006120ac828561206f565b91506120b8828461206f565b91508190509392505050565b60008190508160005260206000209050919050565b60006020601f8301049050919050565b600082821b905092915050565b6000600883026121267fffffffffffffffffffffffffffffffffffffffffffffffffffffffffffffffff826120e9565b61213086836120e9565b95508019841693508086168417925050509392505050565b6000819050919050565b600061216d612168612163846119a1565b612148565b6119a1565b9050919050565b6000819050919050565b61218783612152565b61219b61219382612174565b8484546120f6565b825550505050565b600090565b6121b06121a3565b6121bb81848461217e565b505050565b5b818110156121df576121d46000826121a8565b6001810190506121c1565b5050565b601f821115612224576121f5816120c4565b6121fe846120d9565b8101602085101561220d578190505b612221612219856120d9565b8301826121c0565b50505b505050565b600082821c905092915050565b600061224760001984600802612229565b1980831691505092915050565b60006122608383612236565b9150826002028217905092915050565b612279826118ef565b67ffffffffffffffff81111561229257612291611bec565b5b61229c8254611f19565b6122a78282856121e3565b600060209050601f8311600181146122da57600084156122c8578287015190505b6122d28582612254565b86555061233a565b601f1984166122e8866120c4565b60005b82811015612310578489015182556001820191506020850194506020810190506122eb565b8683101561232d5784890151612329601f891682612236565b8355505b6001600288020188555050505b505050505050565b60006040820190506123576000830185611a36565b6123646020830184611b4c565b9392505050565b7f4e487b7100000000000000000000000000000000000000000000000000000000600052601260045260246000fdfea2646970667358221220a126e1e278b0eb1f9933c2ebd673d9cda8d84b8bd4716f838a0e8e1dac1e57fd64736f6c63430008180033",
  "linkReferences": {},
  "deployedLinkReferences": {}
}